:020000040800F2
:1000000010050020D5000008DD000008DF00000812
:1000100000000000000000000000000000000000E0
:10002000000000000000000000000000E1000008E7
:100030000000000000000000E30000081921000893
:10004000E7000008E7000008E7000008E7000008F4
:10005000E7000008E7000008E7000008E7000008E4
:10006000E7000008CD080008E7000008E7000008E6
:10007000E7000008E700000800000000E7000008B3
:1000800000000000E7000008000000000000000081
:10009000E700000800000000E7000008E700000893
:1000A000E7000008E7000008E7000008E700000894
:1000B000E7000008E7000008E7000008E700000884
:1000C0000348854600F00CFB00480047E92C000877
:1000D000100500200448804704480047FEE7FEE77B
:1000E000FEE7FEE7FEE7FEE7C9210008C1000008C1
:1000F00030B50B46014600202022012409E00D46C0
:10010000D5409D4205D31D469540491B2546954047
:1001100040191546521E002DF1DC30BD421C0178FD
:10012000401C0029FBD1801A7047420005D04200D4
:10013000120E52428A4201DB00207047C90508189E
:1001400070470000F0B51FB488B00B9909980024DF
:1001500048400999C00F490049080991C0070B9907
:100160000090490049080B9109990898A646084350
:100170001CD00B990A98084318D009980124400014
:10018000420D4800410D099824050003000B20434F
:1001900009900B980003000B20430B9050181C494A
:1001A0004018002201901446104605E00020014648
:1001B0000DB0F0BD032801DA034600E003239C469E
:1001C000C11A0AAE0AE05F0008ADED5B4F00F75BB5
:1001D0007D430027AA187C41491C5B1E6145F2DD66
:1001E000410004AB5A522104120C0A43240C401C57
:1001F0000828DFDB01980290009970460191009079
:10020000059B049A0799069800F0B9F8D0E700001A
:100210000DFCFFFF10B500229623114600F069F88F
:1002200010BDC20FD207400040080BD0C10D0723FC
:10023000DB01C91840020905400A1143C208400702
:1002400011437047002001467047CB0FDB07490080
:1002500010B5490802460A4307D00A0D07240903CE
:10026000E401090B121B002A01DC002010BDC900AB
:10027000440F0C43C100E018D205801800F031F89B
:1002800010BDF0B51FB40646002082B005464024DC
:10029000019100901BE0019922460F46304600F084
:1002A00041FA049A059B801A994110D310461946C9
:1002B000224600F027FA361A8F4101972246012084
:1002C0000021009F00F01EFA38184D410090204692
:1002D000641E0028DFDC019B00982946324607B0E7
:1002E000F0BD002904DA401C490001D1400840005B
:1002F000704770B40024050C05D11024000402D10D
:10030000002921D01124050E01D100020834050F67
:1003100001D10001241D850F01D18000A41C0028FB
:1003200001DB4000641C002908D020252E1B0D464F
:10033000F540A14000D001212943084301061B1BC1
:10034000000ADB1D02D5002070BC7047DB051818C1
:1003500080180029F8DA401C4900F5D170BC40082B
:100360004000704710B5002B08DA0024401C6141A2
:1003700092185B411A4301D14008400010BDF0B50E
:100380001FB482B005460C0003D0084602F02AF8DC
:1003900002E002F027F8203002460090214628466D
:1003A00000F0B0F9049B059A04460F461843114328
:1003B000084314D0184610431BD0009840210A1A55
:1003C0001846059900F0AEF905460E46009A0599C3
:1003D000049800F097F9084305D0012004E0204676
:1003E000394607B0F0BD0020C11705430E432C432A
:1003F000374300990E986305401A7905E40A0022F4
:100400000C43FD0A0A3002D500200146E9E7010548
:10041000101969410C9C0D9D00196941FFF7A2FF5D
:10042000DFE70000F0B507460846584087B0C00F28
:10043000049048000E46590040084908BC1A8841FB
:1004400005D2384631461E4617460B46024658002E
:10045000400810434CD0300D039040055900400D2A
:10046000490D0590401A0290402872DA18030121C4
:10047000000B09050843019004980092002805D05C
:100480000199524200208841009201900298402137
:100490000A1A0199009800F035F905460C466B469A
:1004A00007CB00F050F9C0197141039A0E0D0023DB
:1004B000D71756401A467A40164344D0049A002A69
:1004C0002DD0029A012A039A15DC1205C01A914117
:1004D00001263605001C7141D20F059ED2070093FC
:1004E000019202962A462346FFF749FF07B0F0BD66
:1004F00038463146FAE71605224A0F46B218C01AA6
:10050000B74101210905001C4F4100187F411146E8
:1005100018187941E20F10436D19644113E0E207A6
:100520006D0815436408C2071443039A0126120597
:10053000C01A91413605001C7141CE074008304376
:100540004908C01851412A462346FFF70BFFCDE763
:10055000FFE7049801224000C117121A00238B41C3
:1005600004983146C417381AA141EEE730B401248B
:10057000E407634030BC55E730B40124E407614030
:1005800030BC4FE70000E0FFF0B50C465C4085B0A2
:10059000E40FE40703944C000026640859009446D5
:1005A000490802460296224321D062460A431ED0E1
:1005B0006200570D4A000E032303550D0124024625
:1005C0002C492405781B1B0B360B4018234326436C
:1005D000614600901C46501AB44103D30098401C59
:1005E000009002E0921800985B41002803DA002096
:1005F000014605B0F0BD00200121090507468646E9
:1006000011E064461D46141BB54106D36546521BD6
:10061000B341744607430C43A646CD07400849083A
:10062000284392185B4105460D43EAD11046184312
:1006300013D06046194650407140084306D06046CA
:10064000101AB34106D20122002306E00022012342
:10065000DB0702E00122D2435310009874460105E3
:10066000381C6141029C039D00196941FFF77AFE25
:10067000BFE70000FD0300004A0009030123090B46
:100680001B0519430A4B10B5520D9A4202DA00209D
:10069000014610BD064B34339A4203DC9A1A00F02F
:1006A00041F810BD034BD21800F02CF810BD00002B
:1006B000FF030000CDFBFFFF10B5002904DB012480
:1006C000E40740428C412146002B04DB1C460123F9
:1006D000DB075242A341994200D1904210BD000075
:1006E000064C0125064E05E0E36807CC2B430C3C85
:1006F00098471034B442F7D3FFF7E6FC942D000876
:10070000B42D000810B5202A04DB0146203A9140A0
:10071000002010BD914020239C1A0346E34019435A
:10072000904010BD10B5202A04DB0846203AD04086
:10073000002110BD0B46D340D0402024A21A914086
:100740000843194610BD10B5202A06DBCB17084612
:10075000203A1041C1170B4306E00B461341D0402D
:100760002024A21A91400843194610BD10B5014635
:10077000806A826D50231A420AD1816D0122520291
:10078000114381650168CA681205920F05D020E007
:10079000006D426B0846904710BD026A002A18D1CE
:1007A0000A68120715D58A6853070122002B09DB56
:1007B0004B680C24A3434B60816D13029943114392
:1007C000816506E0816D202319438165C16D114368
:1007D000C16500F043F910BD10B5806A816D4022FB
:1007E00011438165C16D04221143C16500F03FF9D9
:1007F00010BD10B5806A00F039F910BD38B5044657
:10080000064805490068FFF773FC604300E0401E9E
:1008100000900028FBD138BD40420F000C000020A2
:10082000F8B50446006881688907890F012902D15B
:100830000168C90722D18168114A1026114001259B
:1008400000290ED18168294381600120FFF7D6FF7E
:1008500000F03AFD07460CE000F036FDC01B0A2808
:1008600007D9A06D3043A065E06D2843E065012005
:10087000F8BD20680068C043C007EDD10020F8BD76
:100880001700008030B500230446303C1A46092C7E
:1008900004D80C4B4000C0188038038C012901D1CA
:1008A00001200343084904201C46C4409500240746
:1008B000240F001F521CD2B24C51C0B2022AF3D3F3
:1008C00030BD0000582D00080400002010B502487B
:1008D00000F042FA10BD00007400002010B504685A
:1008E00063608368102B036803D099600068C2605E
:1008F00010BD9A600068C16010BDF8B50546044699
:100900004035287D0026012808D001202875206860
:1009100081688907890F01290ED101E00220F8BD05
:100920000168C90708D0A06D20210843A0650126F1
:10093000002028753046F8BDA16DFF220132914399
:1009400002221143A165C1688907890F0091C1681E
:1009500089088900C160206881689207114381601D
:1009600000F0B2FC07460EE000F0AEFCC01B0A2807
:1009700009D9A06D0221884310210843A0650020F9
:1009800028750120F8BD206880680028ECDB20680D
:10099000C168009A1143C160A06D80088000401CAE
:1009A000A065C5E7F8B506460D464036317D0129FC
:1009B0000DD00121317501688A68520709D5816D12
:1009C000202211438165002030750120F8BD0220EE
:1009D000F8BD204B6A68D80547109A421E4C8A6AB7
:1009E0002B681BD05B035B0B1A438A62296849039F
:1009F00005D5A1680143A1600A20FFF7FFFE286822
:100A0000800302D5A0683843A0602868C0031DD5C4
:100A1000A068012109060843A06017E05B035B0B97
:100A20009A438A622968490302D5A1688143A1607B
:100A30002868800302D5A068B843A0602868C00376
:100A400004D5A168012000068143A1600020307513
:100A5000F8BD000001100000002701400248018895
:100A60000905090D0180704700000020704770479C
:100A700070B5040006D0A06D26460025403600283B
:100A800002D006E0012070BDE5653575204600F016
:100A9000D1F8A06DC00603D421688868400705D549
:100AA000A06D10210843A0653575EBE7A06DFF220E
:100AB0000132904302221043A06588688207920F9A
:100AC0005A48012A02D10A68D2072BD1032362684F
:100AD0009B079A4205D05B429A4202D05B009A4241
:100AE00009D10A69920092080A6121680A6963685B
:100AF0001A430A610CE00A69920092080A6181684F
:100B00000F22920491438160816862681143816081
:100B10002168CA6818239A43CA602168CA68A36812
:100B20001A43CA608168012252069143816081683C
:100B3000228F52061143816020688168C90004D465
:100B4000816801221207114381602068C168384A18
:100B50001140C1602169E068022923D000210843C7
:100B6000216A226B4903520011430843616B084319
:100B7000A16989030843E169C90308432168CA6878
:100B80001043C860A06A0146FF39C23905D0E16A46
:100B900008432168CA681043C860606A01210128BF
:100BA00002D00BE00421DAE7206A002823D0A06DF0
:100BB00020221043A065E06D0843E065206C012809
:100BC00020681FD00169C90703D00169490849009D
:100BD000016120684169C908C90041612068416913
:100BE000E26B11434161E565A06D80088000401C07
:100BF000A065002070BD2068C26801231B041A4351
:100C0000C260DBE70269FF239B009A430261206810
:100C10000269636CE66C1A43A36C33431A430261A6
:100C2000206802690A430261D3E7000000270140FF
:100C30001902FEFFF0B506460068174985B08842E4
:100C400028D11648416B4715394341630120009074
:100C5000032001900025052069460295000700F059
:100C600071FA0F480F4C21C42560E7608020656051
:100C7000A060000120612020A56160610948083C56
:100C800000F0AAF9002803D07E2107A001F094FB10
:100C90003465A66205B0F0BD00240140001002409A
:100CA00008000240740000202E2E2F5372632F6123
:100CB00064632E6300000000F7B504460068002559
:100CC000806840073DD426464036307D01280AD052
:100CD00001273775E069012807D02046FFF7A0FDFE
:100CE000050002D02EE00220FEBDA06D164908408E
:100CF000FF2101310843A0650020E0653075216DBA
:100D00001248C862216D12480863216D114848637A
:100D100021681C200860206841681022114341604E
:100D20002068C1683943C1602168206D4031029B51
:100D3000019A00F0D5F9206881680422114381608E
:100D400000E002252846FEBDFEF1FFFF6D0700080A
:100D5000F3070008D9070008F8B504469D48016864
:100D60009C4A9C4E9B4F0832206813041C36303737
:100D7000904201D108221EE0B04201D180221AE047
:100D8000B84202D10122D20215E0924A4432904286
:100D900002D10122D2030EE08E4A5832904201D194
:100DA0001A4608E08B4A6C32904202D10122D205E9
:100DB00001E00122D20625461140203500293BD012
:100DC0000168090738D5016808229143016081490B
:100DD00020680831884201D108201EE0B04201D1CC
:100DE00080201AE0B84202D10120C00215E0794902
:100DF0004431884202D10120C0030EE075495831C8
:100E0000884201D1184608E072496C31884202D10B
:100E10000120C00501E00120C0066E494860E06B7A
:100E200001210843E0630420687100202871616B90
:100E3000002901D02046884766480168654A206835
:100E400008321315904201D104221EE0B04201D1B4
:100E500040221AE0B84201D11A4616E05D4A4432F7
:100E6000904202D1012292030FE05A4A5832904236
:100E700002D10122920408E0564A6C32904202D11B
:100E80000122920501E001229206114238D0016848
:100E9000490735D50168890603D4026804218A43CD
:100EA00002604C4920680831884201D104201EE0CC
:100EB000B04201D140201AE0B84201D1184616E0F4
:100EC00044494431884202D1012080030FE0414966
:100ED0005831884202D10120800408E03D496C313C
:100EE000884202D10120800501E0012080063949B5
:100EF000486005206871216B002901D02046884791
:100F000034480168334A206808325315904201D1B1
:100F100002221EE0B04201D120221AE0B84201D1E3
:100F20001A4616E02B4A4432904202D10122520363
:100F30000FE0284A5832904202D10122520408E0C0
:100F4000244A6C32904202D10122520501E0012272
:100F5000520611423CD00168890739D501688906DB
:100F600003D401680222914301601A4920680831C4
:100F7000884201D102201EE0B04201D120201AE0B7
:100F8000B84201D1184616E012494431884202D1D4
:100F9000012040030FE00F495831884202D101205F
:100FA000400408E00B496C31884202D10120400521
:100FB00001E00120400607494860E06BE063012042
:100FC000687100202871E16A002901D02046884715
:100FD000F8BD00000000024070B5002805D00346AF
:100FE00020335979002902D003E0012070BD00218F
:100FF000197102215971046822683749C5680A408D
:101000008168466929430569354329438569294330
:10101000C5692943056A2943114321602F492F4C93
:1010200002687831A24206D18A6A120912018A62E4
:101030008A6A406849E0294C1434A24207D18A6A7E
:10104000F024A2438A628A6A406800013DE0234C92
:101050002834A24208D18A6A0F242402A2438A6259
:101060008A6A4068000230E01C4C3C34A24208D13D
:101070008A6A0F242403A2438A628A6A40680003B2
:1010800023E0164C5034A24208D18A6A0F2424046B
:10109000A2438A628A6A8088000416E00F4C643496
:1010A000A24208D18A6A0F242405A2438A628A6A6E
:1010B0008088000509E08A4209D18A6A0F24240643
:1010C000A2438A628A6A0079000602438A6201208A
:1010D0005871002070BD00000FC0FFFF08000240E3
:1010E000F8B5044620300579012D1ED00125057183
:1010F0000226467120680768AF4307602046FFF765
:10110000EDFB20680168314301602068016804221A
:1011100011430160206801680822114301602068C2
:101120000168294301600020F8BD0220F8BD31B5F7
:1011300000F0CAF8044600F0C7F80099001B884286
:10114000F9D338BDF8B500230124A2E027469F401B
:101150003A4070D04D68022D01D0122D14D1DD0817
:10116000AD002D1800952D6A5E07AC46F50E0F26D2
:10117000AE46AE406546B543AC460E697546AE40D8
:1011800065462E43009D2E624D68012D05D0022D2F
:1011900003D0112D01D0122D16D185680326AC463F
:1011A0005D00AE46AE406546B543AC46CE6875467A
:1011B000AE4065462E43866046680D79BE43ED0617
:1011C000ED0F9D403543456006685F000325BD4037
:1011D000AE46AE430D79B446AE07B60FBE40654687
:1011E0002E430660C6687546AE438D68BD403543E4
:1011F000C5604D68ED004BD5294D6E6B26436E637F
:101200009E08284DB6007519AC46AD689E07360F8E
:101210000F27B740BD4305273F07B84201D100273C
:1012200015E0214FB84201D1012710E01F4FB8420D
:1012300002D102270BE02BE01D4FB84201D103275A
:1012400005E01C4FB84201D1052700E00627B74052
:101250002F436546AF60184D2E684F689643FF03D5
:1012600000D516432E606E684F689643BF0300D5C5
:1012700016436E60AE684F689643FF0200D5164372
:10128000AE60EE684F689643BF0200D51643EE602D
:101290005B1C0A681546DD4000D057E7F8BD00002A
:1012A00000100240000001400004005000080050FF
:1012B000000C0050001C005000040140002A01D026
:1012C0008161704781627047014800687047000083
:1012D0001000002002480168491C016070470000AE
:1012E0001000002010B5064801684022114301603B
:1012F000002000F007F800F071F9002010BD000098
:101300000020024010B5044607487D21C90000684E
:10131000FEF7EEFE00F086FD00222146501E00F092
:1013200083F9002010BD00000C000020F8B5044631
:1013300005462034607D012804D0607D022801D05C
:101340000120F8BD207D012808D001202075022051
:101350006075FFF7B9FF074600260DE00220F8BDD3
:10136000FFF7B2FFC11B7D20C000814204D90220DB
:10137000A86326750320F8BD28688068C04340072D
:10138000EED5002081002A6814315650401C0F28E9
:10139000F8D9284600F0C0F80020F8BDF8B50025BF
:1013A0000446002806D026462036707D00270028F7
:1013B00002D005E00120F8BD3775204600F06CF83A
:1013C0000220707520680168490849000160A80082
:1013D000216814300F506D1CEDB20F2DF7D9206825
:1013E0008168042211438160A1686068E26A084351
:1013F000A16A11430843E1690843216A0843A169CE
:101400000843616A084321684A68224B1A40104326
:101410004860204600F034FD2169E068226B0843F3
:1014200061691143084321680A68FE239A43104307
:10143000086020680168012211430160FFF744FF42
:10144000054608E0FFF740FF411B7D20C0008142B8
:1014500001D9082010E020688068C043C007F1D19E
:10146000FFF732FF05460AE0FFF72EFF411B7D2004
:10147000C000814203D91020A0630320F8BD20687A
:101480008068C043C006EFD4A763012070750020B8
:10149000F8BD00000F0000FCF0B500681A4985B0E7
:1014A00088422FD11948816B471539438163FF204A
:1014B00000240225012600900294694604960195B5
:1014C00003941348FFF73EFEE80200900294694639
:1014D000019503940F48FFF735FE072000020090A6
:1014E0000520029469460496019503940007FFF7CE
:1014F00029FE0294694607480097049601950394D3
:10150000FFF720FE05B0F0BD0024004000100240AF
:101510000008005000040050F8B504462168082077
:10152000C86020688168042739438160FFF7CCFEDA
:101530002546064620350BE0FFF7C6FE811B7D20C1
:10154000C000814204D9A763002028750320F8BD9C
:1015500020688068C0430007EED401206875002031
:101560002875F8BDFFB5044605462034607D81B07E
:10157000012805D0607D022802D0012005B0F0BD11
:10158000607D01281DD1207D012807D00120207514
:1015900002276775FFF798FE06460DE00220EDE78B
:1015A000FFF792FE811B7D20C000814204D9AF630A
:1015B000002020750320E1E728688068C0434007C9
:1015C000EED502982A68800014301158039B194008
:1015D000049B194311500020D0E7000010B50C48BF
:1015E000416B012211434163816B0204114381630A
:1015F00000221146501F00F017F800221146901EDD
:1016000000F012F800221146501E00F00DF810BD37
:1016100000100240C106C90E01208840014908603F
:101620007047000000E100E010B500F01BFD10BDA8
:10163000F8B504460068614D810601D400057DD5EA
:101640005E4E0027403EB06BC00004D4B06B310446
:101650000843B06301275A480168C90511D40168DD
:10166000821511430160FFF72FFE009005E0FFF7A0
:101670002BFE0099401A642844D851480068C005E0
:10168000F5D53168032000056268014010408842AA
:1016900005D10323A0681B051840884208D0900399
:1016A000800F032804D13068800301D50120F8BDE4
:1016B000286903210904084029D00A40824202D047
:1016C0002278920606D4A2680A4082421FD020885F
:1016D00000051CD528692A6988430121C9040A43E9
:1016E0002A612A698A432A612861C0050FD5FFF75C
:1016F000EBFD009008E0FFF7E7FD0099411A314843
:10170000814201D90320F8BD28698005F3D56168BD
:101710008803800F032805D1326800058243014009
:101720000A433260286903226168120411400843A9
:101730002861002F06D0B16B012000E002E0000715
:101740008143B1632078C00705D0E868E16880086C
:1017500080000843E8602078800705D5E8680C2100
:10176000884321690843E8602078400706D5E86887
:1017700003218902884361690843E86020780007F3
:1017800006D5E868032109038843A1690843E86096
:101790002078400606D5E868012189068843216A39
:1017A0000843E8602078000606D5E868032189042C
:1017B0008843E1690843E8600020F8BD401002401A
:1017C0000070004088130000F8B5054653480E46E7
:1017D0000068C007C00FB0420AD2504801684908EB
:1017E0004900314301600068C007C00FB0426FD1AB
:1017F00028784B4C800705D5E068F0218843A9681C
:101800000843E0602878C00752D06868022817D0E3
:10181000032818D02168012818D08905002957DA33
:10182000E168890889000143E160FFF74DFD6968BF
:101830000746022912D003291CD0012926D033E003
:1018400021688903EAE721688901E7E74907E5E7B5
:10185000FFF73AFDC11B3348814223D8E0680007F7
:10186000800F0228F4D123E0FFF72EFDC11B2D4885
:10187000814217D8E0680007800F0328F4D117E0F1
:10188000FFF722FDC11B274881420BD8E068000703
:10189000800F0128F4D10BE0FFF716FDC11B214892
:1018A000814201D90320F8BDE0680007800FF3D121
:1018B0001A480168C907C90FB1420BD90168490824
:1018C0004900314301600068C007C00FB04201D039
:1018D0000120F8BD2878400706D5E06807210902F5
:1018E0008843E9680843E0602878000707D5E06886
:1018F0000721C90288432969C9000843E06000F054
:101900001DF8E168084A0906090F515CC8400749FB
:1019100008600020FFF7F6FC0020F8BD0020024020
:101920000010024088130000782D00080C000020F1
:1019300001480068704700000C00002010B5184AEC
:10194000D1680C20084004280BD0082810D00C289F
:1019500010D050680004410F0120C003491C88408A
:1019600010BD1068C00601D50E4810BD0E4810BD50
:101970000E4810BD88020E4B000F185C0902D36898
:10198000890F491CDB0301D5084A05E01268D2061D
:1019900001D5044A00E0044A5043FEF7A9FB10BDFC
:1019A0000010024000093D000024F40000127A00FB
:1019B000882D0008F8B504460078FE4DC0074AD0CF
:1019C000E8680007800F022807D0E8680007800F4A
:1019D000032809D1E868C00306D5286880033AD5F2
:1019E0006068002873D036E00120626800048242FB
:1019F00003D129680143296011E0052301211B045B
:101A000089049A422A6802D10A432A60F1E7824394
:101A10002A602A680240009228688843286060682B
:101A200000280CD0FFF750FC064604E0FFF74CFC02
:101A3000801B64287ED828688003F7D50BE0FFF769
:101A400043FC064604E0FFF73FFC801B6428F1D806
:101A500028688003F7D42078800741D5E8681F27DD
:101A60000007800F3F02012807D0E8680007800FB9
:101A7000032809D1E868C00306D42868400717D5B1
:101A8000E068012823D113E0E068002817D0296816
:101A90000922914301432960FFF716FC064604E042
:101AA000FFF712FC801B0228C4D828684007F7D52E
:101AB00068682169B84309020843686010E0286833
:101AC000400840002860FFF7FFFB064605E095E070
:101AD000FFF7FAFB801B0228ACD828684007F7D430
:101AE0002078C00672D5E868B34E0007800F0AD090
:101AF000E06900282868B1495AD008432860FFF7F8
:101B0000E3FB074644E02868800502D5E069002829
:101B100074D0606A69683140884212D900F0C4FA12
:101B20000028AFD16868616AB0430843686068689C
:101B3000000200E0DCE0218C000A0906084368602E
:101B40000FE06968B143014369606868218C000255
:101B5000000A090608436860606A00F0A5FA0028D8
:101B600090D1606A410B0120C003491C8840E9689C
:101B700009060A0F9249895CC84092490860002012
:101B8000FFF7C0FB22E0FFF79FFBC01B02288BD8AA
:101B900028688005F7D56868616AB04308436860C3
:101BA0006868218C0002000A0906084368600DE09D
:101BB00088432860FFF788FB064604E0FFF784FBB4
:101BC000801B022888D828688005F7D420787E4EAC
:101BD000000723D560690028306910D0012108432F
:101BE0003061FFF771FB074604E0FFF76DFBC01B98
:101BF00002287DD830698007F7D50FE001E1400861
:101C000040003061FFF760FB074604E0FFF75CFB34
:101C1000C01B02286CD830698007F7D420784007B1
:101C200060D5A86B0027C00005D4A86B0121090767
:101C30000843A863012765480168C90511D40168F4
:101C4000821511430160FFF73FFB009005E0FFF7AD
:101C50003BFB0099401A64284AD85C480068C005DC
:101C6000F5D55648A268824203D1316901433161FA
:101C700011E001218902002A07D005231B029A42A4
:101C800003D132690A433261EFE73269824332613C
:101C9000306988433061A06800280ED0FFF714FB3C
:101CA000009006E0FFF710FB0099411A4848814276
:101CB0001ED830698005F5D50DE0FFF705FB0090D3
:101CC00006E0FFF701FB0099411A414881420FD815
:101CD00030698005F5D4002F04D0A96B01200007DE
:101CE0008143A9632078800630D53A48421400E049
:101CF00080E0A169002916D0AB6801210B43AB60DD
:101D00006B6B0B436B63016A11430162FFF7DCFAF3
:101D1000064604E0FFF7D8FA801B02286AD8A868B4
:101D20008007F7D512E0A96849084900A960016A4F
:101D300091430162FFF7C8FA064604E0FFF7C4FAD0
:101D4000801B022856D8A8688007F7D4A06A00280C
:101D500055D0E9680907890F032952D001263606B4
:101D60000228286805D0B0432860FFF7ADFA044682
:101D700042E0B0432860FFF7A7FA074604E0FFF708
:101D8000A3FAC01B022835D828688001F7D4216B3C
:101D9000E06AEA680843616BFD231B049A43114320
:101DA0000843E860286830432860FFF78DFA04464E
:101DB00017E000000010024000E0000000010000F9
:101DC000782D00080C0000204010024000700040F8
:101DD0008813000000000140FFF776FA001B02287C
:101DE00008D828688001F7D509E0FFF76DFA001BD5
:101DF000022801D90320F8BD28688001F5D400200D
:101E0000F8BD0120F8BD0000042204490428086937
:101E100002D09043086170471043FBE700E000E008
:101E200070470000094910B5401E884201D90120C1
:101E300010BD074C60610321081F00F013F900205A
:101E4000A06107202061002010BD0000FFFFFF00FF
:101E500000E000E010B5FFF7E3FF10BD10B5024849
:101E6000FFF764FA10BD0000D400002010B500F0A8
:101E7000D5F90248FFF750FB10BD0000D400002048
:101E800070B50446FFF720FA7D260546F60008E007
:101E9000FFF71AFA401BB04203D90120A0630320C8
:101EA00070BD20688068C0438006F1D4002070BDFA
:101EB0001CB51A481849016000210122520501642D
:101EC0004260816001240461C160416203220462B6
:101ED000C263C162FF22C2320463826241638161D4
:101EE000042281634261C161FEF7C2FD002803D074
:101EF0004F210BA000F060FA012000030190694619
:101F000000940648FEF74EFD002803D0582104A097
:101F100000F052FA1CBD0000002401401400002013
:101F20002E2E2F5372632F6164632E630000000016
:101F300008B50848016B012211430163006B104092
:101F40000022009011460920FFF76EFB0920FFF7E1
:101F500061FB08BD00100240F0B5224887B0C16A9D
:101F600004242143C162C16A21400591C26A8021D3
:101F70000A43C262C26A0A400592C16A012631431D
:101F8000C162C16A31400591C16A02252943C1621B
:101F9000C06A002228400590052020210007FFF795
:101FA0008DF9E002009010480027019069460297E1
:101FB0000E48FFF7C7F80C206946A1C10320039023
:101FC0000520694604940007FFF7BCF82020694605
:101FD000C1C10520694600070397FFF7B3F807B0B2
:101FE000F0BD000000100240000021100008005069
:101FF00010B5164814490160002141600C22C260EE
:1020000081604022416102610523C1619B024162FE
:1020100083610262072281625203C2620163FFF799
:102020003BFA0A48FFF7BAF9002803D0EF2108A0CD
:1020300000F0C2F90A4948680E229043001D48602A
:102040000248FFF773F910BD00240040D4000020BF
:102050002E2E2F5372632F6C63642E6300000000DA
:10206000000001408307FF22DB0E9A408907090E1A
:10207000994000280BDA0007000F08388308084849
:102080009B001818C36993430B43C36170478308CF
:1020900004489B001B181868904308431860704759
:1020A00000ED00E000E400E070B517490023CA68C5
:1020B0001206120F18D18A6B154CD500134A02D59F
:1020C0001268224009E08E6B01252D072E438E6396
:1020D00012688E6B2240AE438E63A24204D103216C
:1020E0008903884200D101230A4801684908490050
:1020F000194301600068C007C00F984201D0012059
:1021000070BD002070BD0000001002400070004053
:10211000001800000020024010B5FFF7DBF8FFF7C1
:1021200099FE10BD10B526499CB00A680320C00274
:102130008243CB14D2180A6022490A6982430A6199
:102140000620009088150290012003901020049032
:1021500002200A9040040C90000100240D900B9482
:102160006846FFF727FC002800D0FEE70F200E90FE
:1021700003200F9010941194012112940EA8FFF7E0
:1021800023FB002800D0FEE720201390C00214900B
:1021900013A8FFF74DFA002800D0FEE7FFF7C8FBB1
:1021A0007D21C900FDF7A4FFFFF73CFE0420FFF7E7
:1021B0002BFE00221146501EFFF736FA1CB010BD50
:1021C0000070004040100240104801688215114321
:1021D0000160C1680E4A1140C16001680D4A11409A
:1021E0000160816849084900816001680122920408
:1021F00091430160C168FD2212049143C160002136
:1022000001610549C003886070470000001002406A
:102210000C40FF88F6FFF6FE00ED00E0FEB500265C
:10222000FDF7FFFF0B4602465EA1684600F0C6F8C8
:1022300000256F465D4C0EE0785D2E287ED0002193
:10224000FEF720FB5A48B100026862500919406845
:102250006D1CB61C48606846FDF760FFA842EBD8CD
:10226000616808200140CB032188524D01400904D8
:102270000B43A1892A46014049040B4321890140AF
:1022800089040B43A18A0140C9040B43218A014000
:1022900009050B43A18B014049050B43218B0140EC
:1022A00088050343414800212030FFF75BF9A188EE
:1022B000042001400B0421882A46014049040B43B5
:1022C000A189014089040B4321890140C9040B43C2
:1022D000A18A014009050B43218A014049050B43AE
:1022E000A18B014089050B43218B0140C8050343A5
:1022F0002E4802212030FFF735F9A1880220014045
:102300004B042188014089040B43A1890140C90481
:102310000B432189014009050B43A18A014049056E
:102320000B43218A014089050B43A18B0140C9055C
:102330000B43217E01400806034300E02BE01B48CD
:102340002A4604212030FFF70DF920792A46C007DC
:10235000430B20780621C007000B0343207BC007F6
:10236000C00A0343207AC007800A0343207DC007C8
:10237000400A0343207CC007000A0343207FC007B4
:10238000C0090343207EC00780090343074820306B
:10239000FFF7E8F8FEBD781940780121FEF772FAE0
:1023A0006D1C4FE725352E3366000000B400002079
:1023B00004000020FFFF03FCFEE700000FB410B58F
:1023C00004A9074B02AA039800F0ECF8044602A9FE
:1023D000002000F083FC204610BC08BC04B0184765
:1023E000DD2C00082021020C01D010211046020A29
:1023F00001D010460839020901D01046091F820891
:1024000001D01046891E420801D0881E7047081A64
:10241000704702E008C8121F08C1002AFAD17047AD
:102420007047002001E001C1121F002AFBD1704754
:10243000F0B51FB486B00998089A030D0021024335
:1024400014D05148514A18185043051411980128C6
:1024500010981AD0281A401C00264D4F4D4900965E
:1024600001910490002812DA444211E011980124ED
:1024700049A3012801D11098C1430698119A84609C
:102480000360C26041600BB0F0BD4042E4E7044627
:10249000210500203F4A001C51410391029012E0A7
:1024A000E00707D032463B4601990098FDF74AFE07
:1024B0000191009032463B4610461946FDF742FE18
:1024C00006460F466410002CEAD10498039B0028AE
:1024D000029A0999089806DAFDF734FE019B009AE2
:1024E000FDF730FE05E0FEF74FF8019B009AFEF77E
:1024F0004BF804460E460022284BFEF7DDF803D8C1
:102500000020C043014607E00022254B204631460B
:10251000FDF788FFFEF7B0F8102409E0002C0ADB75
:102520000A220023FDF7ADFE079B30321A55641EC8
:1025300002460A43F2D11122641C079B121B1C198C
:10254000119B012B03D0012308430ED10AE008435D
:1025500004D0112010900020119077E71098151AE0
:102560006D1E0BE01098824202DD00236D1C03E01B
:10257000824201DA00236D1E002BEED006981199DD
:102580008260C16030C07EE701FCFFFF104D00009B
:10259000000014400000F03F300000000000F04355
:1025A0000000E03FFFB597B00646002518E2252859
:1025B00077D100242746FD49049400E00443761CAB
:1025C00032780120203A90400842F7D130782A280A
:1025D0000ED00222307801463039092916D80499E4
:1025E0000A235943303940181443761C0490F1E70C
:1025F000189802C804911890002904DA01204003B9
:1026000004434842049002200443761C30782E286C
:1026100014D1042004437078761C2A2809D1189814
:10262000761C80C8189009E00A214F43303FC71933
:10263000761C3078014630390929F5D930786C2874
:1026400010D006DC4C281AD068280ED06A2817D182
:1026500004E0742813D07A2812D110E0012040053C
:1026600004430CE00121090501E0032109050C43A5
:102670007178814203D1012000052418761C761C54
:102680003078119066280BD013DC58287DD009DCF7
:1026900000287BD04528F6D04628F4D047281AD108
:1026A000A5E118E0632835D0642870D0652812D1E0
:1026B0009DE170286CD008DC6728F1D069287BD0B8
:1026C0006E280DD06F2806D1BAE073282ED0752859
:1026D00071D0782859D01A9A199990476D1C7EE1CB
:1026E0006002400F022809D003280DD00428189852
:1026F00001680DD00D60001D189070E11898EA1760
:1027000001680D604A60F6E7189801680D80F2E7ED
:102710000D70F0E718986A4601781172001D189044
:102720000020507202A80090012005E0189802C80D
:10273000189000200091C04361070DD5002101E0F1
:102740000199491C0191B94212DA8142F8DB009AE1
:10275000515C0029F4D10BE0002101E00199491CF2
:1027600001918142FADB019A0099895C0029F5D137
:10277000019904981A9B471A21463846199A00F085
:1027800097FA0199401945180BE04FE02CE113E04E
:102790004EE0009800990078491C00911A9A199906
:1027A00090470198401E0190401CF2D121463846C6
:1027B0001A9B199A10E137E00A200021009001913C
:1027C0006002410F022907D0189A01CA1892C21755
:1027D0009446032908D00AE01898C01DC108C90012
:1027E00005C91891944607E000B2C217944604291F
:1027F00002D140B2C1178C4600226146944506DAE8
:102800000A460021404291418C462D2102E02105DB
:1028100004D52B216A461173012103E0E10701D0A1
:102820002021F7E7029155E00A200AE0102008E095
:10283000102000900021042004430191082703E0A8
:1028400008200021019100906002410F022907D069
:10285000189A01CA189200229446032908D008E069
:102860001898C01DC108C90005C91891944603E015
:1028700080B2042900D1C0B200210291210729D5DC
:102880001199702906D0009A1021019B4A401A43E1
:1028900005D00EE040216A461173012108E061462F
:1028A000014306D030216A461173119951730221F8
:1028B0000291009A0821019B4A401A430AD16146BD
:1028C000014301D1610705D530216A461173012109
:1028D0007F1E02911199582904D035A10E910DA99E
:1028E0000D910DE037A1F9E76146019B009AFDF7D4
:1028F000C8FC0E9B8C469B5C0D9A521E0D92137069
:1029000061460143F0D10D9805A9081A20300190C5
:10291000600703D501200004844300E001270198EB
:10292000874201DD381A00E000200199009041182B
:10293000029809180498401A0490E00306D421462E
:102940001A9B199A049800F0B3F94519002706E07C
:1029500003A81A9AC05D199990476D1C7F1C0298B4
:102960008742F5DBE0030CD521461A9B199A04989F
:1029700000F09EF9451904E01A9A30201999904701
:102980006D1C0099481E00900029F5DC08E00D98A8
:102990000D990078491C0D911A9A199990476D1C50
:1029A0000199481E01900029F1DC63E1092801002A
:1029B00030313233343536373839616263646566B5
:1029C0000000000030313233343536373839414277
:1029D000434445460000000000F05AF94519761CB2
:1029E0003078002800D0E2E528461BB0F0BD600733
:1029F00000D406271898C01DC108C90048680A6895
:102A00000831C30FDB071891190001D09CA108E021
:102A1000210501D59BA104E0E10701D09AA100E0C6
:102A20009AA1430011985B08109165280CD006DC30
:102A3000452809D046281DD0472841D141E06628C5
:102A400018D067283CD13CE00021112F01DB112078
:102A500000E0781C0191009008A911A8FFF7E8FC9C
:102A6000139905910021119A15927F1C12980197D4
:102A7000009150E00120C00703900120019008A9B7
:102A8000009711A8FFF7D4FC139A1499059200221D
:102A9000119B009212981593059A0192002901D07A
:102AA000104602E0791C40180190381A01D50198AF
:102AB00004E04042401E0090781C0190C01B029030
:102AC00043E0012F00DA01270021112F01DD112041
:102AD00000E038460191009008A911A8FFF7A8FC72
:102AE00013990591119A002112981592009101975E
:102AF00021070CD40599B94201DB019900E001914D
:102B0000012904DD159A491E515C302906D0B842CE
:102B100001DA011D05DA0121029115E00199491E32
:102B2000EDE7002805DC0099411800910199091A88
:102B300003E0019A411C914200DD01910099401A85
:102B4000401C02900120C0070390200706D4029980
:102B50000198814202DB0020C043029000206946B8
:102B6000C87707AF012103980337C907884224D0EB
:102B7000022011902B201290039800280CDA40427A
:102B800003902D20129007E00A210398FDF7B0FA78
:102B900030317F1E039039701199481E1190002921
:102BA000F2DC03980028EFD1791E12980870307873
:102BB000202108404530BF1E387006A8C01BC01D2C
:102BC000039010980078002800D001200199411846
:102BD0000298C0170918039809180498401A401E53
:102BE0000490E00306D421461A9B199A049800F039
:102BF0005FF8451910980078002803D01A9A19999F
:102C000090476D1CE00324D521461A9B199A04981D
:102C100000F04EF845191CE00098002807DB0099E9
:102C20000598884203DD1598405C199901E01999CF
:102C300030201A9A904700986D1C401C0090029812
:102C4000401E0290002804D11A9A2E20199990470C
:102C50006D1C0199481E01900029DDDC05E03878E3
:102C60001A9A7F1C199990476D1C0399481E03906E
:102C70000029F4DC21461A9B199A0498ACE600005E
:102C80002D0000002B0000002000000000000000CC
:102C9000F8B5044600251E461746880404D405E00E
:102CA00039462020B0476D1C641EF9D52846F8BD72
:102CB000FFB50446002581B01E46C80301D5302764
:102CC00000E02027880404D505E038460399B04782
:102CD0006D1C641EF9D5284605B0F0BD0A68531C6A
:102CE0000B60107070470000FEF7FCFAFFF71AFA4D
:102CF000FFF71EF9FFF730F9FFF77AF9FFF7AEF8A3
:102D0000FFF7D6F800211048FDF7F7FD01220F4923
:102D10000D48FDF7D1FF0D4C0B250D4E0D4FED432A
:102D2000FA20FEF704FA2088FDF774FA2946FDF729
:102D3000FCF9FDF776FA32463B46FDF703FAFDF75C
:102D400084FAFFF793F8EBE714000020000000205E
:102D50008FC2F5285C8F0A40BE00A000DA00F800A0
:102D6000E4007C007E00A800FE00FC00EE0076007F
:102D70001E00F2005E004E00000000000000000097
:102D80000102030406070809030406080C101820B2
:102D900030000000B42D00080000002014000000E6
:102DA00012240008C82D000814000020FC040000B4
:102DB00022240008000000000000000000000000C5
:082DC00080841E0000000000E9
:04000005080000C12E
:00000001FF
